{
  "address": "0xe7f1725E7734CE288F8367e1Bb143E90bb3F0512",
  "abi": [
    {
      "inputs": [
        {
          "internalType": "address",
          "name": "priceFeedAddress",
          "type": "address"
        }
      ],
      "stateMutability": "nonpayable",
      "type": "constructor"
    },
    {
      "inputs": [],
      "name": "AlreadyClaimed",
      "type": "error"
    },
    {
      "inputs": [],
      "name": "GithubIdNotSet",
      "type": "error"
    },
    {
      "inputs": [],
      "name": "InsufficientBalance",
      "type": "error"
    },
    {
      "inputs": [],
      "name": "InvalidBotSigner",
      "type": "error"
    },
    {
      "inputs": [],
      "name": "InvalidPriceFeed",
      "type": "error"
    },
    {
      "inputs": [],
      "name": "InvalidVoucher",
      "type": "error"
    },
    {
      "inputs": [],
      "name": "NotBotSigner",
      "type": "error"
    },
    {
      "inputs": [],
      "name": "NotOwner",
      "type": "error"
    },
    {
      "inputs": [],
      "name": "ReentrancyGuardReentrantCall",
      "type": "error"
    },
    {
      "inputs": [],
      "name": "TransferFailed",
      "type": "error"
    },
    {
      "inputs": [],
      "name": "VoucherExists",
      "type": "error"
    },
    {
      "anonymous": false,
      "inputs": [
        {
          "indexed": true,
          "internalType": "address",
          "name": "ownerAddress",
          "type": "address"
        },
        {
          "indexed": false,
          "internalType": "uint256",
          "name": "amountWei",
          "type": "uint256"
        }
      ],
      "name": "DepositAdded",
      "type": "event"
    },
    {
      "anonymous": false,
      "inputs": [
        {
          "indexed": true,
          "internalType": "address",
          "name": "ownerAddress",
          "type": "address"
        },
        {
          "indexed": false,
          "internalType": "uint256",
          "name": "amountWei",
          "type": "uint256"
        }
      ],
      "name": "DepositRemoved",
      "type": "event"
    },
    {
      "anonymous": false,
      "inputs": [
        {
          "indexed": true,
          "internalType": "address",
          "name": "ownerAddress",
          "type": "address"
        },
        {
          "indexed": true,
          "internalType": "uint256",
          "name": "repoGithubId",
          "type": "uint256"
        },
        {
          "indexed": true,
          "internalType": "uint256",
          "name": "contrubutorGithubId",
          "type": "uint256"
        },
        {
          "indexed": false,
          "internalType": "uint256",
          "name": "ownerGithubId",
          "type": "uint256"
        },
        {
          "indexed": false,
          "internalType": "uint256",
          "name": "prNumber",
          "type": "uint256"
        },
        {
          "indexed": false,
          "internalType": "address",
          "name": "contributor",
          "type": "address"
        },
        {
          "indexed": false,
          "internalType": "uint256",
          "name": "amountWei",
          "type": "uint256"
        },
        {
          "indexed": false,
          "internalType": "uint256",
          "name": "dollarAmount8dec",
          "type": "uint256"
        }
      ],
      "name": "RewardClaimed",
      "type": "event"
    },
    {
      "anonymous": false,
      "inputs": [
        {
          "indexed": true,
          "internalType": "address",
          "name": "ownerAddress",
          "type": "address"
        },
        {
          "indexed": true,
          "internalType": "uint256",
          "name": "repoGithubId",
          "type": "uint256"
        },
        {
          "indexed": true,
          "internalType": "uint256",
          "name": "contributorGithubId",
          "type": "uint256"
        },
        {
          "indexed": false,
          "internalType": "uint256",
          "name": "ownerGithubId",
          "type": "uint256"
        },
        {
          "indexed": false,
          "internalType": "uint256",
          "name": "prNumber",
          "type": "uint256"
        },
        {
          "indexed": false,
          "internalType": "uint256",
          "name": "dollarAmount8dec",
          "type": "uint256"
        },
        {
          "indexed": false,
          "internalType": "bytes32",
          "name": "hash",
          "type": "bytes32"
        }
      ],
      "name": "VoucherStored",
      "type": "event"
    },
    {
      "stateMutability": "payable",
      "type": "fallback"
    },
    {
      "inputs": [
        {
          "internalType": "uint256",
          "name": "githubId",
          "type": "uint256"
        }
      ],
      "name": "addAmount",
      "outputs": [],
      "stateMutability": "payable",
      "type": "function"
    },
    {
      "inputs": [
        {
          "internalType": "string",
          "name": "secret",
          "type": "string"
        },
        {
          "internalType": "address",
          "name": "ownerAddress",
          "type": "address"
        },
        {
          "internalType": "uint256",
          "name": "ownerGithubId",
          "type": "uint256"
        },
        {
          "internalType": "uint256",
          "name": "repoGithubId",
          "type": "uint256"
        },
        {
          "internalType": "uint256",
          "name": "prNumber",
          "type": "uint256"
        },
        {
          "internalType": "uint256",
          "name": "contributorGithubId",
          "type": "uint256"
        },
        {
          "internalType": "uint256",
          "name": "dollarAmount8dec",
          "type": "uint256"
        }
      ],
      "name": "claimReward",
      "outputs": [],
      "stateMutability": "nonpayable",
      "type": "function"
    },
    {
      "inputs": [],
      "name": "getCurrentSigner",
      "outputs": [
        {
          "internalType": "address",
          "name": "",
          "type": "address"
        }
      ],
      "stateMutability": "view",
      "type": "function"
    },
    {
      "inputs": [
        {
          "internalType": "address",
          "name": "ownerAddress",
          "type": "address"
        }
      ],
      "name": "getOwnerDetails",
      "outputs": [
        {
          "components": [
            {
              "internalType": "uint256",
              "name": "githubId",
              "type": "uint256"
            },
            {
              "internalType": "uint256",
              "name": "amount",
              "type": "uint256"
            }
          ],
          "internalType": "struct ContriFlow.RepoOwnerDetails",
          "name": "",
          "type": "tuple"
        }
      ],
      "stateMutability": "view",
      "type": "function"
    },
    {
      "inputs": [
        {
          "internalType": "uint256",
          "name": "repoOwnerGithubId",
          "type": "uint256"
        },
        {
          "internalType": "uint256",
          "name": "repoId",
          "type": "uint256"
        },
        {
          "internalType": "uint256",
          "name": "prNumber",
          "type": "uint256"
        }
      ],
      "name": "getVoucherDetails",
      "outputs": [
        {
          "components": [
            {
              "internalType": "bytes32",
              "name": "hash",
              "type": "bytes32"
            },
            {
              "internalType": "uint256",
              "name": "contributorGithubId",
              "type": "uint256"
            },
            {
              "internalType": "uint256",
              "name": "dollarAmount8dec",
              "type": "uint256"
            },
            {
              "internalType": "uint256",
              "name": "ethAmountInWei",
              "type": "uint256"
            },
            {
              "internalType": "bool",
              "name": "claimed",
              "type": "bool"
            }
          ],
          "internalType": "struct ContriFlow.Voucher",
          "name": "",
          "type": "tuple"
        }
      ],
      "stateMutability": "view",
      "type": "function"
    },
    {
      "inputs": [
        {
          "internalType": "address",
          "name": "",
          "type": "address"
        }
      ],
      "name": "ownerDetails",
      "outputs": [
        {
          "internalType": "uint256",
          "name": "githubId",
          "type": "uint256"
        },
        {
          "internalType": "uint256",
          "name": "amount",
          "type": "uint256"
        }
      ],
      "stateMutability": "view",
      "type": "function"
    },
    {
      "inputs": [
        {
          "internalType": "uint256",
          "name": "amountWei",
          "type": "uint256"
        }
      ],
      "name": "removeAmount",
      "outputs": [],
      "stateMutability": "nonpayable",
      "type": "function"
    },
    {
      "inputs": [],
      "name": "s_priceFeed",
      "outputs": [
        {
          "internalType": "contract AggregatorV3Interface",
          "name": "",
          "type": "address"
        }
      ],
      "stateMutability": "view",
      "type": "function"
    },
    {
      "inputs": [
        {
          "internalType": "address",
          "name": "newBot",
          "type": "address"
        }
      ],
      "name": "setBotSigner",
      "outputs": [],
      "stateMutability": "nonpayable",
      "type": "function"
    },
    {
      "inputs": [
        {
          "internalType": "address",
          "name": "ownerAddress",
          "type": "address"
        },
        {
          "internalType": "uint256",
          "name": "ownerGithubId",
          "type": "uint256"
        },
        {
          "internalType": "uint256",
          "name": "repoGithubId",
          "type": "uint256"
        },
        {
          "internalType": "uint256",
          "name": "contributorGithubId",
          "type": "uint256"
        },
        {
          "internalType": "uint256",
          "name": "prNumber",
          "type": "uint256"
        },
        {
          "internalType": "uint256",
          "name": "dollarAmount8dec",
          "type": "uint256"
        },
        {
          "internalType": "bytes32",
          "name": "hash",
          "type": "bytes32"
        }
      ],
      "name": "storeVoucher",
      "outputs": [],
      "stateMutability": "nonpayable",
      "type": "function"
    },
    {
      "inputs": [
        {
          "internalType": "uint256",
          "name": "",
          "type": "uint256"
        },
        {
          "internalType": "uint256",
          "name": "",
          "type": "uint256"
        },
        {
          "internalType": "uint256",
          "name": "",
          "type": "uint256"
        }
      ],
      "name": "vouchersByRepoAndPr",
      "outputs": [
        {
          "internalType": "bytes32",
          "name": "hash",
          "type": "bytes32"
        },
        {
          "internalType": "uint256",
          "name": "contributorGithubId",
          "type": "uint256"
        },
        {
          "internalType": "uint256",
          "name": "dollarAmount8dec",
          "type": "uint256"
        },
        {
          "internalType": "uint256",
          "name": "ethAmountInWei",
          "type": "uint256"
        },
        {
          "internalType": "bool",
          "name": "claimed",
          "type": "bool"
        }
      ],
      "stateMutability": "view",
      "type": "function"
    },
    {
      "stateMutability": "payable",
      "type": "receive"
    }
  ],
  "transactionHash": "0x7d24b53477b1e51e21d11c030f5def59d566fb49bbd061dea0f7b4b5783d4abd",
  "args": [
    "0x5FbDB2315678afecb367f032d93F642f64180aa3"
  ],
  "numDeployments": 1,
  "solcInputHash": "00e58dad78973c31c5d07d418a4524aa",
  "bytecode": "0x60a060405234801561001057600080fd5b50604051611e94380380611e94833981810160405281019061003291906101bf565b60016000819055503373ffffffffffffffffffffffffffffffffffffffff1660808173ffffffffffffffffffffffffffffffffffffffff1681525050600073ffffffffffffffffffffffffffffffffffffffff168173ffffffffffffffffffffffffffffffffffffffff16036100d4576040517f52cc3f7d00000000000000000000000000000000000000000000000000000000815260040160405180910390fd5b80600360006101000a81548173ffffffffffffffffffffffffffffffffffffffff021916908373ffffffffffffffffffffffffffffffffffffffff16021790555033600260006101000a81548173ffffffffffffffffffffffffffffffffffffffff021916908373ffffffffffffffffffffffffffffffffffffffff160217905550506101ec565b600080fd5b600073ffffffffffffffffffffffffffffffffffffffff82169050919050565b600061018c82610161565b9050919050565b61019c81610181565b81146101a757600080fd5b50565b6000815190506101b981610193565b92915050565b6000602082840312156101d5576101d461015c565b5b60006101e3848285016101aa565b91505092915050565b608051611c9061020460003960005050611c906000f3fe6080604052600436106100a05760003560e01c8063c3bb812111610064578063c3bb81211461017a578063d06721be146101b7578063e29acc26146101e2578063ec5a3f861461020b578063f24793471461024c578063faf7893c14610275576100a1565b80630637f719146100a35780630912f232146100e15780630ec3b027146100fd5780633388c8d414610128578063c06d289a14610151576100a1565b5b005b3480156100af57600080fd5b506100ca60048036038101906100c59190611103565b6102b2565b6040516100d8929190611149565b60405180910390f35b6100fb60048036038101906100f6919061119e565b6102d6565b005b34801561010957600080fd5b50610112610464565b60405161011f919061122a565b60405180910390f35b34801561013457600080fd5b5061014f600480360381019061014a9190611103565b61048a565b005b34801561015d57600080fd5b506101786004803603810190610173919061127b565b61055e565b005b34801561018657600080fd5b506101a1600480360381019061019c9190611103565b61086d565b6040516101ae919061135b565b60405180910390f35b3480156101c357600080fd5b506101cc6108da565b6040516101d99190611385565b60405180910390f35b3480156101ee57600080fd5b506102096004803603810190610204919061119e565b610904565b005b34801561021757600080fd5b50610232600480360381019061022d91906113a0565b610ad4565b60405161024395949392919061141d565b60405180910390f35b34801561025857600080fd5b50610273600480360381019061026e91906114d5565b610b31565b005b34801561028157600080fd5b5061029c600480360381019061029791906113a0565b610ea2565b6040516102a9919061161d565b60405180910390f35b60016020528060005260406000206000915090508060000154908060010154905082565b60003411610319576040517f08c379a000000000000000000000000000000000000000000000000000000000815260040161031090611695565b60405180910390fd5b60008103610353576040517fd233f12300000000000000000000000000000000000000000000000000000000815260040160405180910390fd5b6000600160003373ffffffffffffffffffffffffffffffffffffffff1673ffffffffffffffffffffffffffffffffffffffff168152602001908152602001600020905060008160000154036103b0578181600001819055506103f7565b818160000154146103f6576040517f08c379a00000000000000000000000000000000000000000000000000000000081526004016103ed90611701565b60405180910390fd5b5b3481600101600082825461040b9190611750565b925050819055503373ffffffffffffffffffffffffffffffffffffffff167fa2a2db73af12c9f5bef6303364d44e78f97e992c353cd8659f3474c471427e9b346040516104589190611784565b60405180910390a25050565b600360009054906101000a900473ffffffffffffffffffffffffffffffffffffffff1681565b600260009054906101000a900473ffffffffffffffffffffffffffffffffffffffff1673ffffffffffffffffffffffffffffffffffffffff163373ffffffffffffffffffffffffffffffffffffffff161461051a576040517f08c379a0000000000000000000000000000000000000000000000000000000008152600401610511906117eb565b60405180910390fd5b80600260006101000a81548173ffffffffffffffffffffffffffffffffffffffff021916908373ffffffffffffffffffffffffffffffffffffffff16021790555050565b600260009054906101000a900473ffffffffffffffffffffffffffffffffffffffff1673ffffffffffffffffffffffffffffffffffffffff163373ffffffffffffffffffffffffffffffffffffffff16146105ee576040517f08c379a00000000000000000000000000000000000000000000000000000000081526004016105e5906117eb565b60405180910390fd5b6000600160008973ffffffffffffffffffffffffffffffffffffffff1673ffffffffffffffffffffffffffffffffffffffff16815260200190815260200160002060000154905060008114806106445750868114155b1561067b576040517fd233f12300000000000000000000000000000000000000000000000000000000815260040160405180910390fd5b6000801b600460008981526020019081526020016000206000888152602001908152602001600020600086815260200190815260200160002060000154146106ef576040517f7f8ba39200000000000000000000000000000000000000000000000000000000815260040160405180910390fd5b600061071d84600360009054906101000a900473ffffffffffffffffffffffffffffffffffffffff16610f36565b905060008111610762576040517f08c379a000000000000000000000000000000000000000000000000000000000815260040161075990611857565b60405180910390fd5b6040518060a0016040528084815260200187815260200185815260200182815260200160001515815250600460008a8152602001908152602001600020600089815260200190815260200160002060008781526020019081526020016000206000820151816000015560208201518160010155604082015181600201556060820151816003015560808201518160040160006101000a81548160ff02191690831515021790555090505085878a73ffffffffffffffffffffffffffffffffffffffff167f2a9afc8fb4d9832e0595129a11126a05b1e16aee924c5164e33f336b416af8168b89898960405161085a9493929190611877565b60405180910390a4505050505050505050565b61087561104d565b600160008373ffffffffffffffffffffffffffffffffffffffff1673ffffffffffffffffffffffffffffffffffffffff168152602001908152602001600020604051806040016040529081600082015481526020016001820154815250509050919050565b6000600260009054906101000a900473ffffffffffffffffffffffffffffffffffffffff16905090565b6000600160003373ffffffffffffffffffffffffffffffffffffffff1673ffffffffffffffffffffffffffffffffffffffff16815260200190815260200160002060010154905081811015610985576040517ff4d678b800000000000000000000000000000000000000000000000000000000815260040160405180910390fd5b81600160003373ffffffffffffffffffffffffffffffffffffffff1673ffffffffffffffffffffffffffffffffffffffff16815260200190815260200160002060010160008282546109d791906118bc565b9250508190555060003373ffffffffffffffffffffffffffffffffffffffff1683604051610a0490611921565b60006040518083038185875af1925050503d8060008114610a41576040519150601f19603f3d011682016040523d82523d6000602084013e610a46565b606091505b5050905080610a81576040517f90b8ec1800000000000000000000000000000000000000000000000000000000815260040160405180910390fd5b3373ffffffffffffffffffffffffffffffffffffffff167f6c0508a15c6004f004874bb9cc4a2a9d2d8091a86101a97e1662e7eb1413549884604051610ac79190611784565b60405180910390a2505050565b600460205282600052604060002060205281600052604060002060205280600052604060002060009250925050508060000154908060010154908060020154908060030154908060040160009054906101000a900460ff16905085565b610b39610f6c565b60003390506000600460008881526020019081526020016000206000878152602001908152602001600020600086815260200190815260200160002090506000801b816000015403610bb7576040517f6d67dbd600000000000000000000000000000000000000000000000000000000815260040160405180910390fd5b60008a8a8a8a8a8a8a8a604051602001610bd89897969594939291906119de565b604051602081830303815290604052805190602001209050808260000154141580610c07575084826001015414155b80610c16575083826002015414155b15610c4d576040517f6d67dbd600000000000000000000000000000000000000000000000000000000815260040160405180910390fd5b8160040160009054906101000a900460ff1615610c96576040517f646cf55800000000000000000000000000000000000000000000000000000000815260040160405180910390fd5b60018260040160006101000a81548160ff0219169083151502179055506000826003015490506000600160008c73ffffffffffffffffffffffffffffffffffffffff1673ffffffffffffffffffffffffffffffffffffffff16815260200190815260200160002060010154905081811015610d3d576040517ff4d678b800000000000000000000000000000000000000000000000000000000815260040160405180910390fd5b8181610d4991906118bc565b600160008d73ffffffffffffffffffffffffffffffffffffffff1673ffffffffffffffffffffffffffffffffffffffff1681526020019081526020016000206001018190555060008573ffffffffffffffffffffffffffffffffffffffff1683604051610db590611921565b60006040518083038185875af1925050503d8060008114610df2576040519150601f19603f3d011682016040523d82523d6000602084013e610df7565b606091505b5050905080610e32576040517f90b8ec1800000000000000000000000000000000000000000000000000000000815260040160405180910390fd5b878a8d73ffffffffffffffffffffffffffffffffffffffff167ff5a76827f7992196339361c8c5b9c9de97a15d21806682a5f1d5a89c62b6a5e48e8d8b898e604051610e82959493929190611a5d565b60405180910390a4505050505050610e98610fb2565b5050505050505050565b610eaa611067565b60046000858152602001908152602001600020600084815260200190815260200160002060008381526020019081526020016000206040518060a0016040529081600082015481526020016001820154815260200160028201548152602001600382015481526020016004820160009054906101000a900460ff16151515158152505090509392505050565b600080610f4283610fbc565b905080670de0b6b3a764000085610f599190611ab0565b610f639190611b21565b91505092915050565b600260005403610fa8576040517f3ee5aeb500000000000000000000000000000000000000000000000000000000815260040160405180910390fd5b6002600081905550565b6001600081905550565b6000808273ffffffffffffffffffffffffffffffffffffffff1663feaf968c6040518163ffffffff1660e01b815260040160a060405180830381865afa15801561100a573d6000803e3d6000fd5b505050506040513d601f19601f8201168201806040525081019061102e9190611bdf565b5050509150506402540be400816110459190611ab0565b915050919050565b604051806040016040528060008152602001600081525090565b6040518060a00160405280600080191681526020016000815260200160008152602001600081526020016000151581525090565b600080fd5b600080fd5b600073ffffffffffffffffffffffffffffffffffffffff82169050919050565b60006110d0826110a5565b9050919050565b6110e0816110c5565b81146110eb57600080fd5b50565b6000813590506110fd816110d7565b92915050565b6000602082840312156111195761111861109b565b5b6000611127848285016110ee565b91505092915050565b6000819050919050565b61114381611130565b82525050565b600060408201905061115e600083018561113a565b61116b602083018461113a565b9392505050565b61117b81611130565b811461118657600080fd5b50565b60008135905061119881611172565b92915050565b6000602082840312156111b4576111b361109b565b5b60006111c284828501611189565b91505092915050565b6000819050919050565b60006111f06111eb6111e6846110a5565b6111cb565b6110a5565b9050919050565b6000611202826111d5565b9050919050565b6000611214826111f7565b9050919050565b61122481611209565b82525050565b600060208201905061123f600083018461121b565b92915050565b6000819050919050565b61125881611245565b811461126357600080fd5b50565b6000813590506112758161124f565b92915050565b600080600080600080600060e0888a03121561129a5761129961109b565b5b60006112a88a828b016110ee565b97505060206112b98a828b01611189565b96505060406112ca8a828b01611189565b95505060606112db8a828b01611189565b94505060806112ec8a828b01611189565b93505060a06112fd8a828b01611189565b92505060c061130e8a828b01611266565b91505092959891949750929550565b61132681611130565b82525050565b604082016000820151611342600085018261131d565b506020820151611355602085018261131d565b50505050565b6000604082019050611370600083018461132c565b92915050565b61137f816110c5565b82525050565b600060208201905061139a6000830184611376565b92915050565b6000806000606084860312156113b9576113b861109b565b5b60006113c786828701611189565b93505060206113d886828701611189565b92505060406113e986828701611189565b9150509250925092565b6113fc81611245565b82525050565b60008115159050919050565b61141781611402565b82525050565b600060a08201905061143260008301886113f3565b61143f602083018761113a565b61144c604083018661113a565b611459606083018561113a565b611466608083018461140e565b9695505050505050565b600080fd5b600080fd5b600080fd5b60008083601f84011261149557611494611470565b5b8235905067ffffffffffffffff8111156114b2576114b1611475565b5b6020830191508360018202830111156114ce576114cd61147a565b5b9250929050565b60008060008060008060008060e0898b0312156114f5576114f461109b565b5b600089013567ffffffffffffffff811115611513576115126110a0565b5b61151f8b828c0161147f565b985098505060206115328b828c016110ee565b96505060406115438b828c01611189565b95505060606115548b828c01611189565b94505060806115658b828c01611189565b93505060a06115768b828c01611189565b92505060c06115878b828c01611189565b9150509295985092959890939650565b6115a081611245565b82525050565b6115af81611402565b82525050565b60a0820160008201516115cb6000850182611597565b5060208201516115de602085018261131d565b5060408201516115f1604085018261131d565b506060820151611604606085018261131d565b50608082015161161760808501826115a6565b50505050565b600060a08201905061163260008301846115b5565b92915050565b600082825260208201905092915050565b7f4d7573742073656e642045544800000000000000000000000000000000000000600082015250565b600061167f600d83611638565b915061168a82611649565b602082019050919050565b600060208201905081810360008301526116ae81611672565b9050919050565b7f476974487562204944206d69736d617463680000000000000000000000000000600082015250565b60006116eb601283611638565b91506116f6826116b5565b602082019050919050565b6000602082019050818103600083015261171a816116de565b9050919050565b7f4e487b7100000000000000000000000000000000000000000000000000000000600052601160045260246000fd5b600061175b82611130565b915061176683611130565b925082820190508082111561177e5761177d611721565b5b92915050565b6000602082019050611799600083018461113a565b92915050565b7f4e6f74206f776e65720000000000000000000000000000000000000000000000600082015250565b60006117d5600983611638565b91506117e08261179f565b602082019050919050565b60006020820190508181036000830152611804816117c8565b9050919050565b7f496e76616c69642045544820616d6f756e740000000000000000000000000000600082015250565b6000611841601283611638565b915061184c8261180b565b602082019050919050565b6000602082019050818103600083015261187081611834565b9050919050565b600060808201905061188c600083018761113a565b611899602083018661113a565b6118a6604083018561113a565b6118b360608301846113f3565b95945050505050565b60006118c782611130565b91506118d283611130565b92508282039050818111156118ea576118e9611721565b5b92915050565b600081905092915050565b50565b600061190b6000836118f0565b9150611916826118fb565b600082019050919050565b600061192c826118fe565b9150819050919050565b600081905092915050565b82818337600083830152505050565b600061195c8385611936565b9350611969838584611941565b82840190509392505050565b60008160601b9050919050565b600061198d82611975565b9050919050565b600061199f82611982565b9050919050565b6119b76119b2826110c5565b611994565b82525050565b6000819050919050565b6119d86119d382611130565b6119bd565b82525050565b60006119eb828a8c611950565b91506119f782896119a6565b601482019150611a0782886119c7565b602082019150611a1782876119c7565b602082019150611a2782866119c7565b602082019150611a3782856119c7565b602082019150611a4782846119c7565b6020820191508190509998505050505050505050565b600060a082019050611a72600083018861113a565b611a7f602083018761113a565b611a8c6040830186611376565b611a99606083018561113a565b611aa6608083018461113a565b9695505050505050565b6000611abb82611130565b9150611ac683611130565b9250828202611ad481611130565b91508282048414831517611aeb57611aea611721565b5b5092915050565b7f4e487b7100000000000000000000000000000000000000000000000000000000600052601260045260246000fd5b6000611b2c82611130565b9150611b3783611130565b925082611b4757611b46611af2565b5b828204905092915050565b600069ffffffffffffffffffff82169050919050565b611b7181611b52565b8114611b7c57600080fd5b50565b600081519050611b8e81611b68565b92915050565b6000819050919050565b611ba781611b94565b8114611bb257600080fd5b50565b600081519050611bc481611b9e565b92915050565b600081519050611bd981611172565b92915050565b600080600080600060a08688031215611bfb57611bfa61109b565b5b6000611c0988828901611b7f565b9550506020611c1a88828901611bb5565b9450506040611c2b88828901611bca565b9350506060611c3c88828901611bca565b9250506080611c4d88828901611b7f565b915050929550929590935056fea2646970667358221220219b542aaeebf4ec48d9ab784d350b4bf8c11fdc37aafc1e89202353cf2e31b364736f6c634300081c0033",
  "devdoc": {
    "errors": {
      "ReentrancyGuardReentrantCall()": [
        {
          "details": "Unauthorized reentrant call."
        }
      ]
    },
    "kind": "dev",
    "methods": {},
    "version": 1
  },
  "userdoc": {
    "kind": "user",
    "methods": {
      "addAmount(uint256)": {
        "notice": "Owner deposits ETH to the contract"
      },
      "removeAmount(uint256)": {
        "notice": "Owner withdraws unused ETH from a deposit"
      }
    },
    "version": 1
  },
  "storageLayout": {
    "storage": [
      {
        "astId": 56,
        "contract": "contracts/ContriFlow.sol:ContriFlow",
        "label": "_status",
        "offset": 0,
        "slot": "0",
        "type": "t_uint256"
      },
      {
        "astId": 211,
        "contract": "contracts/ContriFlow.sol:ContriFlow",
        "label": "ownerDetails",
        "offset": 0,
        "slot": "1",
        "type": "t_mapping(t_address,t_struct(RepoOwnerDetails)195_storage)"
      },
      {
        "astId": 213,
        "contract": "contracts/ContriFlow.sol:ContriFlow",
        "label": "bot",
        "offset": 0,
        "slot": "2",
        "type": "t_address"
      },
      {
        "astId": 218,
        "contract": "contracts/ContriFlow.sol:ContriFlow",
        "label": "s_priceFeed",
        "offset": 0,
        "slot": "3",
        "type": "t_contract(AggregatorV3Interface)45"
      },
      {
        "astId": 239,
        "contract": "contracts/ContriFlow.sol:ContriFlow",
        "label": "vouchersByRepoAndPr",
        "offset": 0,
        "slot": "4",
        "type": "t_mapping(t_uint256,t_mapping(t_uint256,t_mapping(t_uint256,t_struct(Voucher)206_storage)))"
      }
    ],
    "types": {
      "t_address": {
        "encoding": "inplace",
        "label": "address",
        "numberOfBytes": "20"
      },
      "t_bool": {
        "encoding": "inplace",
        "label": "bool",
        "numberOfBytes": "1"
      },
      "t_bytes32": {
        "encoding": "inplace",
        "label": "bytes32",
        "numberOfBytes": "32"
      },
      "t_contract(AggregatorV3Interface)45": {
        "encoding": "inplace",
        "label": "contract AggregatorV3Interface",
        "numberOfBytes": "20"
      },
      "t_mapping(t_address,t_struct(RepoOwnerDetails)195_storage)": {
        "encoding": "mapping",
        "key": "t_address",
        "label": "mapping(address => struct ContriFlow.RepoOwnerDetails)",
        "numberOfBytes": "32",
        "value": "t_struct(RepoOwnerDetails)195_storage"
      },
      "t_mapping(t_uint256,t_mapping(t_uint256,t_mapping(t_uint256,t_struct(Voucher)206_storage)))": {
        "encoding": "mapping",
        "key": "t_uint256",
        "label": "mapping(uint256 => mapping(uint256 => mapping(uint256 => struct ContriFlow.Voucher)))",
        "numberOfBytes": "32",
        "value": "t_mapping(t_uint256,t_mapping(t_uint256,t_struct(Voucher)206_storage))"
      },
      "t_mapping(t_uint256,t_mapping(t_uint256,t_struct(Voucher)206_storage))": {
        "encoding": "mapping",
        "key": "t_uint256",
        "label": "mapping(uint256 => mapping(uint256 => struct ContriFlow.Voucher))",
        "numberOfBytes": "32",
        "value": "t_mapping(t_uint256,t_struct(Voucher)206_storage)"
      },
      "t_mapping(t_uint256,t_struct(Voucher)206_storage)": {
        "encoding": "mapping",
        "key": "t_uint256",
        "label": "mapping(uint256 => struct ContriFlow.Voucher)",
        "numberOfBytes": "32",
        "value": "t_struct(Voucher)206_storage"
      },
      "t_struct(RepoOwnerDetails)195_storage": {
        "encoding": "inplace",
        "label": "struct ContriFlow.RepoOwnerDetails",
        "members": [
          {
            "astId": 192,
            "contract": "contracts/ContriFlow.sol:ContriFlow",
            "label": "githubId",
            "offset": 0,
            "slot": "0",
            "type": "t_uint256"
          },
          {
            "astId": 194,
            "contract": "contracts/ContriFlow.sol:ContriFlow",
            "label": "amount",
            "offset": 0,
            "slot": "1",
            "type": "t_uint256"
          }
        ],
        "numberOfBytes": "64"
      },
      "t_struct(Voucher)206_storage": {
        "encoding": "inplace",
        "label": "struct ContriFlow.Voucher",
        "members": [
          {
            "astId": 197,
            "contract": "contracts/ContriFlow.sol:ContriFlow",
            "label": "hash",
            "offset": 0,
            "slot": "0",
            "type": "t_bytes32"
          },
          {
            "astId": 199,
            "contract": "contracts/ContriFlow.sol:ContriFlow",
            "label": "contributorGithubId",
            "offset": 0,
            "slot": "1",
            "type": "t_uint256"
          },
          {
            "astId": 201,
            "contract": "contracts/ContriFlow.sol:ContriFlow",
            "label": "dollarAmount8dec",
            "offset": 0,
            "slot": "2",
            "type": "t_uint256"
          },
          {
            "astId": 203,
            "contract": "contracts/ContriFlow.sol:ContriFlow",
            "label": "ethAmountInWei",
            "offset": 0,
            "slot": "3",
            "type": "t_uint256"
          },
          {
            "astId": 205,
            "contract": "contracts/ContriFlow.sol:ContriFlow",
            "label": "claimed",
            "offset": 0,
            "slot": "4",
            "type": "t_bool"
          }
        ],
        "numberOfBytes": "160"
      },
      "t_uint256": {
        "encoding": "inplace",
        "label": "uint256",
        "numberOfBytes": "32"
      }
    }
  }
}