{
  "address": "0x5E420bad5096E7E16Ec635Cb5470500A70006cA5",
  "abi": [
    {
      "inputs": [],
      "stateMutability": "nonpayable",
      "type": "constructor"
    },
    {
      "inputs": [
        {
          "internalType": "address",
          "name": "spender",
          "type": "address"
        },
        {
          "internalType": "uint256",
          "name": "allowance",
          "type": "uint256"
        },
        {
          "internalType": "uint256",
          "name": "needed",
          "type": "uint256"
        }
      ],
      "name": "ERC20InsufficientAllowance",
      "type": "error"
    },
    {
      "inputs": [
        {
          "internalType": "address",
          "name": "sender",
          "type": "address"
        },
        {
          "internalType": "uint256",
          "name": "balance",
          "type": "uint256"
        },
        {
          "internalType": "uint256",
          "name": "needed",
          "type": "uint256"
        }
      ],
      "name": "ERC20InsufficientBalance",
      "type": "error"
    },
    {
      "inputs": [
        {
          "internalType": "address",
          "name": "approver",
          "type": "address"
        }
      ],
      "name": "ERC20InvalidApprover",
      "type": "error"
    },
    {
      "inputs": [
        {
          "internalType": "address",
          "name": "receiver",
          "type": "address"
        }
      ],
      "name": "ERC20InvalidReceiver",
      "type": "error"
    },
    {
      "inputs": [
        {
          "internalType": "address",
          "name": "sender",
          "type": "address"
        }
      ],
      "name": "ERC20InvalidSender",
      "type": "error"
    },
    {
      "inputs": [
        {
          "internalType": "address",
          "name": "spender",
          "type": "address"
        }
      ],
      "name": "ERC20InvalidSpender",
      "type": "error"
    },
    {
      "inputs": [
        {
          "internalType": "address",
          "name": "owner",
          "type": "address"
        }
      ],
      "name": "OwnableInvalidOwner",
      "type": "error"
    },
    {
      "inputs": [
        {
          "internalType": "address",
          "name": "account",
          "type": "address"
        }
      ],
      "name": "OwnableUnauthorizedAccount",
      "type": "error"
    },
    {
      "inputs": [],
      "name": "ReentrancyGuardReentrantCall",
      "type": "error"
    },
    {
      "anonymous": false,
      "inputs": [
        {
          "indexed": true,
          "internalType": "address",
          "name": "owner",
          "type": "address"
        },
        {
          "indexed": true,
          "internalType": "address",
          "name": "spender",
          "type": "address"
        },
        {
          "indexed": false,
          "internalType": "uint256",
          "name": "value",
          "type": "uint256"
        }
      ],
      "name": "Approval",
      "type": "event"
    },
    {
      "anonymous": false,
      "inputs": [
        {
          "indexed": false,
          "internalType": "uint256",
          "name": "newBuyFee",
          "type": "uint256"
        },
        {
          "indexed": false,
          "internalType": "uint256",
          "name": "newSellFee",
          "type": "uint256"
        }
      ],
      "name": "FeesUpdated",
      "type": "event"
    },
    {
      "anonymous": false,
      "inputs": [
        {
          "indexed": true,
          "internalType": "address",
          "name": "previousOwner",
          "type": "address"
        },
        {
          "indexed": true,
          "internalType": "address",
          "name": "newOwner",
          "type": "address"
        }
      ],
      "name": "OwnershipTransferred",
      "type": "event"
    },
    {
      "anonymous": false,
      "inputs": [
        {
          "indexed": false,
          "internalType": "uint256",
          "name": "amount",
          "type": "uint256"
        }
      ],
      "name": "ReserveFundsWithdrawn",
      "type": "event"
    },
    {
      "anonymous": false,
      "inputs": [
        {
          "indexed": false,
          "internalType": "uint256",
          "name": "oldRatio",
          "type": "uint256"
        },
        {
          "indexed": false,
          "internalType": "uint256",
          "name": "newRatio",
          "type": "uint256"
        }
      ],
      "name": "ReserveRatioUpdated",
      "type": "event"
    },
    {
      "anonymous": false,
      "inputs": [
        {
          "indexed": true,
          "internalType": "address",
          "name": "buyer",
          "type": "address"
        },
        {
          "indexed": false,
          "internalType": "uint256",
          "name": "ethSpent",
          "type": "uint256"
        },
        {
          "indexed": false,
          "internalType": "uint256",
          "name": "tokensReceived",
          "type": "uint256"
        },
        {
          "indexed": false,
          "internalType": "uint256",
          "name": "fee",
          "type": "uint256"
        }
      ],
      "name": "TokensPurchased",
      "type": "event"
    },
    {
      "anonymous": false,
      "inputs": [
        {
          "indexed": true,
          "internalType": "address",
          "name": "seller",
          "type": "address"
        },
        {
          "indexed": false,
          "internalType": "uint256",
          "name": "tokensSold",
          "type": "uint256"
        },
        {
          "indexed": false,
          "internalType": "uint256",
          "name": "ethReceived",
          "type": "uint256"
        },
        {
          "indexed": false,
          "internalType": "uint256",
          "name": "fee",
          "type": "uint256"
        }
      ],
      "name": "TokensSold",
      "type": "event"
    },
    {
      "anonymous": false,
      "inputs": [
        {
          "indexed": true,
          "internalType": "address",
          "name": "from",
          "type": "address"
        },
        {
          "indexed": true,
          "internalType": "address",
          "name": "to",
          "type": "address"
        },
        {
          "indexed": false,
          "internalType": "uint256",
          "name": "value",
          "type": "uint256"
        }
      ],
      "name": "Transfer",
      "type": "event"
    },
    {
      "stateMutability": "payable",
      "type": "fallback"
    },
    {
      "inputs": [],
      "name": "INITIAL_PRICE",
      "outputs": [
        {
          "internalType": "uint256",
          "name": "",
          "type": "uint256"
        }
      ],
      "stateMutability": "view",
      "type": "function"
    },
    {
      "inputs": [],
      "name": "INITIAL_SUPPLY",
      "outputs": [
        {
          "internalType": "uint256",
          "name": "",
          "type": "uint256"
        }
      ],
      "stateMutability": "view",
      "type": "function"
    },
    {
      "inputs": [],
      "name": "MAX_FEE",
      "outputs": [
        {
          "internalType": "uint256",
          "name": "",
          "type": "uint256"
        }
      ],
      "stateMutability": "view",
      "type": "function"
    },
    {
      "inputs": [],
      "name": "SCALE",
      "outputs": [
        {
          "internalType": "uint256",
          "name": "",
          "type": "uint256"
        }
      ],
      "stateMutability": "view",
      "type": "function"
    },
    {
      "inputs": [
        {
          "internalType": "address",
          "name": "owner",
          "type": "address"
        },
        {
          "internalType": "address",
          "name": "spender",
          "type": "address"
        }
      ],
      "name": "allowance",
      "outputs": [
        {
          "internalType": "uint256",
          "name": "",
          "type": "uint256"
        }
      ],
      "stateMutability": "view",
      "type": "function"
    },
    {
      "inputs": [
        {
          "internalType": "address",
          "name": "spender",
          "type": "address"
        },
        {
          "internalType": "uint256",
          "name": "value",
          "type": "uint256"
        }
      ],
      "name": "approve",
      "outputs": [
        {
          "internalType": "bool",
          "name": "",
          "type": "bool"
        }
      ],
      "stateMutability": "nonpayable",
      "type": "function"
    },
    {
      "inputs": [
        {
          "internalType": "address",
          "name": "account",
          "type": "address"
        }
      ],
      "name": "balanceOf",
      "outputs": [
        {
          "internalType": "uint256",
          "name": "",
          "type": "uint256"
        }
      ],
      "stateMutability": "view",
      "type": "function"
    },
    {
      "inputs": [
        {
          "internalType": "uint256",
          "name": "amount",
          "type": "uint256"
        }
      ],
      "name": "burn",
      "outputs": [],
      "stateMutability": "nonpayable",
      "type": "function"
    },
    {
      "inputs": [
        {
          "internalType": "address",
          "name": "account",
          "type": "address"
        },
        {
          "internalType": "uint256",
          "name": "value",
          "type": "uint256"
        }
      ],
      "name": "burnFrom",
      "outputs": [],
      "stateMutability": "nonpayable",
      "type": "function"
    },
    {
      "inputs": [],
      "name": "buyFee",
      "outputs": [
        {
          "internalType": "uint256",
          "name": "",
          "type": "uint256"
        }
      ],
      "stateMutability": "view",
      "type": "function"
    },
    {
      "inputs": [],
      "name": "buyTokens",
      "outputs": [],
      "stateMutability": "payable",
      "type": "function"
    },
    {
      "inputs": [
        {
          "internalType": "uint256",
          "name": "ethAmount",
          "type": "uint256"
        }
      ],
      "name": "calculatePurchaseReturn",
      "outputs": [
        {
          "internalType": "uint256",
          "name": "tokensOut",
          "type": "uint256"
        },
        {
          "internalType": "uint256",
          "name": "fee",
          "type": "uint256"
        }
      ],
      "stateMutability": "view",
      "type": "function"
    },
    {
      "inputs": [
        {
          "internalType": "uint256",
          "name": "tokenAmount",
          "type": "uint256"
        }
      ],
      "name": "calculateSaleReturn",
      "outputs": [
        {
          "internalType": "uint256",
          "name": "ethOut",
          "type": "uint256"
        },
        {
          "internalType": "uint256",
          "name": "fee",
          "type": "uint256"
        }
      ],
      "stateMutability": "view",
      "type": "function"
    },
    {
      "inputs": [],
      "name": "decimals",
      "outputs": [
        {
          "internalType": "uint8",
          "name": "",
          "type": "uint8"
        }
      ],
      "stateMutability": "view",
      "type": "function"
    },
    {
      "inputs": [
        {
          "internalType": "address",
          "name": "account",
          "type": "address"
        }
      ],
      "name": "getBalance",
      "outputs": [
        {
          "internalType": "uint256",
          "name": "",
          "type": "uint256"
        }
      ],
      "stateMutability": "view",
      "type": "function"
    },
    {
      "inputs": [],
      "name": "getContractStats",
      "outputs": [
        {
          "internalType": "uint256",
          "name": "_totalSupply",
          "type": "uint256"
        },
        {
          "internalType": "uint256",
          "name": "_reserveBalance",
          "type": "uint256"
        },
        {
          "internalType": "uint256",
          "name": "_currentPrice",
          "type": "uint256"
        },
        {
          "internalType": "uint256",
          "name": "_contractETHBalance",
          "type": "uint256"
        },
        {
          "internalType": "uint256",
          "name": "_availableFees",
          "type": "uint256"
        }
      ],
      "stateMutability": "view",
      "type": "function"
    },
    {
      "inputs": [],
      "name": "getCurrentPrice",
      "outputs": [
        {
          "internalType": "uint256",
          "name": "",
          "type": "uint256"
        }
      ],
      "stateMutability": "view",
      "type": "function"
    },
    {
      "inputs": [
        {
          "internalType": "address",
          "name": "recipient",
          "type": "address"
        },
        {
          "internalType": "uint256",
          "name": "amount",
          "type": "uint256"
        }
      ],
      "name": "mintTo",
      "outputs": [],
      "stateMutability": "nonpayable",
      "type": "function"
    },
    {
      "inputs": [],
      "name": "name",
      "outputs": [
        {
          "internalType": "string",
          "name": "",
          "type": "string"
        }
      ],
      "stateMutability": "view",
      "type": "function"
    },
    {
      "inputs": [],
      "name": "owner",
      "outputs": [
        {
          "internalType": "address",
          "name": "",
          "type": "address"
        }
      ],
      "stateMutability": "view",
      "type": "function"
    },
    {
      "inputs": [],
      "name": "renounceOwnership",
      "outputs": [],
      "stateMutability": "nonpayable",
      "type": "function"
    },
    {
      "inputs": [],
      "name": "reserveBalance",
      "outputs": [
        {
          "internalType": "uint256",
          "name": "",
          "type": "uint256"
        }
      ],
      "stateMutability": "view",
      "type": "function"
    },
    {
      "inputs": [],
      "name": "reserveRatio",
      "outputs": [
        {
          "internalType": "uint256",
          "name": "",
          "type": "uint256"
        }
      ],
      "stateMutability": "view",
      "type": "function"
    },
    {
      "inputs": [],
      "name": "sellFee",
      "outputs": [
        {
          "internalType": "uint256",
          "name": "",
          "type": "uint256"
        }
      ],
      "stateMutability": "view",
      "type": "function"
    },
    {
      "inputs": [
        {
          "internalType": "uint256",
          "name": "tokenAmount",
          "type": "uint256"
        }
      ],
      "name": "sellTokens",
      "outputs": [],
      "stateMutability": "nonpayable",
      "type": "function"
    },
    {
      "inputs": [
        {
          "internalType": "uint256",
          "name": "newBuyFee",
          "type": "uint256"
        },
        {
          "internalType": "uint256",
          "name": "newSellFee",
          "type": "uint256"
        }
      ],
      "name": "setFees",
      "outputs": [],
      "stateMutability": "nonpayable",
      "type": "function"
    },
    {
      "inputs": [
        {
          "internalType": "uint256",
          "name": "newRatio",
          "type": "uint256"
        }
      ],
      "name": "setReserveRatio",
      "outputs": [],
      "stateMutability": "nonpayable",
      "type": "function"
    },
    {
      "inputs": [],
      "name": "symbol",
      "outputs": [
        {
          "internalType": "string",
          "name": "",
          "type": "string"
        }
      ],
      "stateMutability": "view",
      "type": "function"
    },
    {
      "inputs": [],
      "name": "totalSupply",
      "outputs": [
        {
          "internalType": "uint256",
          "name": "",
          "type": "uint256"
        }
      ],
      "stateMutability": "view",
      "type": "function"
    },
    {
      "inputs": [
        {
          "internalType": "address",
          "name": "to",
          "type": "address"
        },
        {
          "internalType": "uint256",
          "name": "value",
          "type": "uint256"
        }
      ],
      "name": "transfer",
      "outputs": [
        {
          "internalType": "bool",
          "name": "",
          "type": "bool"
        }
      ],
      "stateMutability": "nonpayable",
      "type": "function"
    },
    {
      "inputs": [
        {
          "internalType": "address",
          "name": "from",
          "type": "address"
        },
        {
          "internalType": "address",
          "name": "to",
          "type": "address"
        },
        {
          "internalType": "uint256",
          "name": "value",
          "type": "uint256"
        }
      ],
      "name": "transferFrom",
      "outputs": [
        {
          "internalType": "bool",
          "name": "",
          "type": "bool"
        }
      ],
      "stateMutability": "nonpayable",
      "type": "function"
    },
    {
      "inputs": [
        {
          "internalType": "address",
          "name": "newOwner",
          "type": "address"
        }
      ],
      "name": "transferOwnership",
      "outputs": [],
      "stateMutability": "nonpayable",
      "type": "function"
    },
    {
      "inputs": [],
      "name": "withdrawFees",
      "outputs": [],
      "stateMutability": "nonpayable",
      "type": "function"
    },
    {
      "stateMutability": "payable",
      "type": "receive"
    }
  ],
  "transactionHash": "0x186851f1d72fa8925609bc4c43f5688daefb18a1fea54db1b63d711fb19c4127",
  "args": [],
  "numDeployments": 1,
  "solcInputHash": "8ce5df30d083bee60fddf51fcca0452a",
  "bytecode": "0x60806040526207a120600755606460095560c8600a5534801561002157600080fd5b50336040518060400160405280600381526020017f44455600000000000000000000000000000000000000000000000000000000008152506040518060400160405280600381526020017f4445560000000000000000000000000000000000000000000000000000000000815250816003908161009e9190610751565b5080600490816100ae9190610751565b505050600073ffffffffffffffffffffffffffffffffffffffff168173ffffffffffffffffffffffffffffffffffffffff16036101235760006040517f1e4fbdf700000000000000000000000000000000000000000000000000000000815260040161011a9190610864565b60405180910390fd5b6101328161018e60201b60201c565b50600160068190555061015430683635c9adc5dea0000061025460201b60201c565b670de0b6b3a764000066038d7ea4c68000683635c9adc5dea0000061017991906108ae565b610183919061091f565b6008819055506109e5565b6000600560009054906101000a900473ffffffffffffffffffffffffffffffffffffffff16905081600560006101000a81548173ffffffffffffffffffffffffffffffffffffffff021916908373ffffffffffffffffffffffffffffffffffffffff1602179055508173ffffffffffffffffffffffffffffffffffffffff168173ffffffffffffffffffffffffffffffffffffffff167f8be0079c531659141344cd1fd0a4f28419497f9722a3daafe3b4186f6b6457e060405160405180910390a35050565b600073ffffffffffffffffffffffffffffffffffffffff168273ffffffffffffffffffffffffffffffffffffffff16036102c65760006040517fec442f050000000000000000000000000000000000000000000000000000000081526004016102bd9190610864565b60405180910390fd5b6102d8600083836102dc60201b60201c565b5050565b600073ffffffffffffffffffffffffffffffffffffffff168373ffffffffffffffffffffffffffffffffffffffff160361032e5780600260008282546103229190610950565b92505081905550610401565b60008060008573ffffffffffffffffffffffffffffffffffffffff1673ffffffffffffffffffffffffffffffffffffffff168152602001908152602001600020549050818110156103ba578381836040517fe450d38c0000000000000000000000000000000000000000000000000000000081526004016103b193929190610993565b60405180910390fd5b8181036000808673ffffffffffffffffffffffffffffffffffffffff1673ffffffffffffffffffffffffffffffffffffffff16815260200190815260200160002081905550505b600073ffffffffffffffffffffffffffffffffffffffff168273ffffffffffffffffffffffffffffffffffffffff160361044a5780600260008282540392505081905550610497565b806000808473ffffffffffffffffffffffffffffffffffffffff1673ffffffffffffffffffffffffffffffffffffffff168152602001908152602001600020600082825401925050819055505b8173ffffffffffffffffffffffffffffffffffffffff168373ffffffffffffffffffffffffffffffffffffffff167fddf252ad1be2c89b69c2b068fc378daa952ba7f163c4a11628f55a4df523b3ef836040516104f491906109ca565b60405180910390a3505050565b600081519050919050565b7f4e487b7100000000000000000000000000000000000000000000000000000000600052604160045260246000fd5b7f4e487b7100000000000000000000000000000000000000000000000000000000600052602260045260246000fd5b6000600282049050600182168061058257607f821691505b6020821081036105955761059461053b565b5b50919050565b60008190508160005260206000209050919050565b60006020601f8301049050919050565b600082821b905092915050565b6000600883026105fd7fffffffffffffffffffffffffffffffffffffffffffffffffffffffffffffffff826105c0565b61060786836105c0565b95508019841693508086168417925050509392505050565b6000819050919050565b6000819050919050565b600061064e6106496106448461061f565b610629565b61061f565b9050919050565b6000819050919050565b61066883610633565b61067c61067482610655565b8484546105cd565b825550505050565b600090565b610691610684565b61069c81848461065f565b505050565b5b818110156106c0576106b5600082610689565b6001810190506106a2565b5050565b601f821115610705576106d68161059b565b6106df846105b0565b810160208510156106ee578190505b6107026106fa856105b0565b8301826106a1565b50505b505050565b600082821c905092915050565b60006107286000198460080261070a565b1980831691505092915050565b60006107418383610717565b9150826002028217905092915050565b61075a82610501565b67ffffffffffffffff8111156107735761077261050c565b5b61077d825461056a565b6107888282856106c4565b600060209050601f8311600181146107bb57600084156107a9578287015190505b6107b38582610735565b86555061081b565b601f1984166107c98661059b565b60005b828110156107f1578489015182556001820191506020850194506020810190506107cc565b8683101561080e578489015161080a601f891682610717565b8355505b6001600288020188555050505b505050505050565b600073ffffffffffffffffffffffffffffffffffffffff82169050919050565b600061084e82610823565b9050919050565b61085e81610843565b82525050565b60006020820190506108796000830184610855565b92915050565b7f4e487b7100000000000000000000000000000000000000000000000000000000600052601160045260246000fd5b60006108b98261061f565b91506108c48361061f565b92508282026108d28161061f565b915082820484148315176108e9576108e861087f565b5b5092915050565b7f4e487b7100000000000000000000000000000000000000000000000000000000600052601260045260246000fd5b600061092a8261061f565b91506109358361061f565b925082610945576109446108f0565b5b828204905092915050565b600061095b8261061f565b91506109668361061f565b925082820190508082111561097e5761097d61087f565b5b92915050565b61098d8161061f565b82525050565b60006060820190506109a86000830186610855565b6109b56020830185610984565b6109c26040830184610984565b949350505050565b60006020820190506109df6000830184610984565b92915050565b612775806109f46000396000f3fe6080604052600436106101f25760003560e01c806370a082311161010d578063a9059cbb116100a0578063dfe6b5d61161006f578063dfe6b5d61461074c578063eb91d37e1461077b578063eced5526146107a6578063f2fde38b146107d1578063f8b2cb4f146107fa57610232565b8063a9059cbb1461069d578063bc063e1a146106da578063d0febe4c14610705578063dd62ed3e1461070f57610232565b80638b4f3b2c116100dc5780638b4f3b2c146105f35780638da5cb5b1461061c57806395d89b4114610647578063a10954fe1461067257610232565b806370a082311461054b578063715018a61461058857806379cc67901461059f5780637c5e2795146105c857610232565b8063313ce56711610185578063470624021161015457806347062402146104a2578063476343ee146104cd57806369fcd4ac146104e45780636c11bcd31461052257610232565b8063313ce567146103e7578063322d21001461041257806342966c6814610450578063449a52f81461047957610232565b806318160ddd116101c157806318160ddd1461032957806323b872dd146103545780632b14ca56146103915780632ff2e9dc146103bc57610232565b806306fdde031461026d578063095ea7b3146102985780630b78f9c0146102d55780630c7d5cd8146102fe57610232565b36610232576040517f08c379a000000000000000000000000000000000000000000000000000000000815260040161022990611cd6565b60405180910390fd5b6040517f08c379a000000000000000000000000000000000000000000000000000000000815260040161026490611cd6565b60405180910390fd5b34801561027957600080fd5b50610282610837565b60405161028f9190611d75565b60405180910390f35b3480156102a457600080fd5b506102bf60048036038101906102ba9190611e30565b6108c9565b6040516102cc9190611e8b565b60405180910390f35b3480156102e157600080fd5b506102fc60048036038101906102f79190611ea6565b6108ec565b005b34801561030a57600080fd5b50610313610992565b6040516103209190611ef5565b60405180910390f35b34801561033557600080fd5b5061033e610998565b60405161034b9190611ef5565b60405180910390f35b34801561036057600080fd5b5061037b60048036038101906103769190611f10565b6109a2565b6040516103889190611e8b565b60405180910390f35b34801561039d57600080fd5b506103a66109d1565b6040516103b39190611ef5565b60405180910390f35b3480156103c857600080fd5b506103d16109d7565b6040516103de9190611ef5565b60405180910390f35b3480156103f357600080fd5b506103fc6109e4565b6040516104099190611f7f565b60405180910390f35b34801561041e57600080fd5b5061043960048036038101906104349190611f9a565b6109ed565b604051610447929190611fc7565b60405180910390f35b34801561045c57600080fd5b5061047760048036038101906104729190611f9a565b610aa2565b005b34801561048557600080fd5b506104a0600480360381019061049b9190611e30565b610b6f565b005b3480156104ae57600080fd5b506104b7610b85565b6040516104c49190611ef5565b60405180910390f35b3480156104d957600080fd5b506104e2610b8b565b005b3480156104f057600080fd5b5061050b60048036038101906105069190611f9a565b610c70565b604051610519929190611fc7565b60405180910390f35b34801561052e57600080fd5b5061054960048036038101906105449190611f9a565b610cef565b005b34801561055757600080fd5b50610572600480360381019061056d9190611ff0565b610ef5565b60405161057f9190611ef5565b60405180910390f35b34801561059457600080fd5b5061059d610f3d565b005b3480156105ab57600080fd5b506105c660048036038101906105c19190611e30565b610f51565b005b3480156105d457600080fd5b506105dd610f71565b6040516105ea9190611ef5565b60405180910390f35b3480156105ff57600080fd5b5061061a60048036038101906106159190611f9a565b610f7c565b005b34801561062857600080fd5b50610631611021565b60405161063e919061202c565b60405180910390f35b34801561065357600080fd5b5061065c61104b565b6040516106699190611d75565b60405180910390f35b34801561067e57600080fd5b506106876110dd565b6040516106949190611ef5565b60405180910390f35b3480156106a957600080fd5b506106c460048036038101906106bf9190611e30565b6110e3565b6040516106d19190611e8b565b60405180910390f35b3480156106e657600080fd5b506106ef611106565b6040516106fc9190611ef5565b60405180910390f35b61070d61110c565b005b34801561071b57600080fd5b5061073660048036038101906107319190612047565b61123c565b6040516107439190611ef5565b60405180910390f35b34801561075857600080fd5b506107616112c3565b604051610772959493929190612087565b60405180910390f35b34801561078757600080fd5b50610790611322565b60405161079d9190611ef5565b60405180910390f35b3480156107b257600080fd5b506107bb61136f565b6040516107c89190611ef5565b60405180910390f35b3480156107dd57600080fd5b506107f860048036038101906107f39190611ff0565b61137b565b005b34801561080657600080fd5b50610821600480360381019061081c9190611ff0565b611401565b60405161082e9190611ef5565b60405180910390f35b60606003805461084690612109565b80601f016020809104026020016040519081016040528092919081815260200182805461087290612109565b80156108bf5780601f10610894576101008083540402835291602001916108bf565b820191906000526020600020905b8154815290600101906020018083116108a257829003601f168201915b5050505050905090565b6000806108d4611413565b90506108e181858561141b565b600191505092915050565b6108f461142d565b6103e8821115801561090857506103e88111155b610947576040517f08c379a000000000000000000000000000000000000000000000000000000000815260040161093e90612186565b60405180910390fd5b8160098190555080600a819055507f5c6323bf1c2d7aaea2c091a4751c1c87af7f2864650c336507a77d0557af37a18282604051610986929190611fc7565b60405180910390a15050565b60075481565b6000600254905090565b6000806109ad611413565b90506109ba8582856114b4565b6109c5858585611549565b60019150509392505050565b600a5481565b683635c9adc5dea0000081565b60006012905090565b60008060008303610a045760008091509150610a9d565b61271060095484610a1591906121d5565b610a1f9190612246565b905060008184610a2f9190612277565b90506000610a3b610998565b03610a6e5766038d7ea4c68000670de0b6b3a764000082610a5c91906121d5565b610a669190612246565b925050610a9d565b80600854610a7c91906122ab565b610a84610998565b82610a8f91906121d5565b610a999190612246565b9250505b915091565b60008111610ae5576040517f08c379a0000000000000000000000000000000000000000000000000000000008152600401610adc9061232b565b60405180910390fd5b60006064600283610af691906121d5565b610b009190612246565b9050808211610b44576040517f08c379a0000000000000000000000000000000000000000000000000000000008152600401610b3b90612397565b60405180910390fd5b610b5633610b50611021565b83611549565b610b6b338284610b669190612277565b61163d565b5050565b610b7761142d565b610b8182826116bf565b5050565b60095481565b610b9361142d565b600060085447610ba39190612277565b905060008111610be8576040517f08c379a0000000000000000000000000000000000000000000000000000000008152600401610bdf90612403565b60405180910390fd5b610bf0611021565b73ffffffffffffffffffffffffffffffffffffffff166108fc829081150290604051600060405180830381858888f19350505050158015610c35573d6000803e3d6000fd5b507f4a0b7a8843b377b271b25fd3ba77a78e2c59ce4efbd6db7c0bbe803511472b1881604051610c659190611ef5565b60405180910390a150565b6000806000831480610c885750610c85610998565b83115b15610c995760008091509150610cea565b6000610ca3610998565b60085485610cb191906121d5565b610cbb9190612246565b9050612710600a5482610cce91906121d5565b610cd89190612246565b91508181610ce69190612277565b9250505b915091565b610cf7611741565b60008111610d3a576040517f08c379a0000000000000000000000000000000000000000000000000000000008152600401610d319061232b565b60405180910390fd5b80610d4433610ef5565b1015610d85576040517f08c379a0000000000000000000000000000000000000000000000000000000008152600401610d7c9061246f565b60405180910390fd5b600080610d9183610c70565b9150915060008211610dd8576040517f08c379a0000000000000000000000000000000000000000000000000000000008152600401610dcf906124db565b60405180910390fd5b81471015610e1b576040517f08c379a0000000000000000000000000000000000000000000000000000000008152600401610e129061256d565b60405180910390fd5b60008183610e2991906122ab565b90508060086000828254610e3d9190612277565b92505081905550610e4e338561163d565b3373ffffffffffffffffffffffffffffffffffffffff166108fc849081150290604051600060405180830381858888f19350505050158015610e94573d6000803e3d6000fd5b503373ffffffffffffffffffffffffffffffffffffffff167f6db63bebf1e6540277744df32846ebdb98385b1a73f2d5de49b28348add63f50858585604051610edf9392919061258d565b60405180910390a2505050610ef2611787565b50565b60008060008373ffffffffffffffffffffffffffffffffffffffff1673ffffffffffffffffffffffffffffffffffffffff168152602001908152602001600020549050919050565b610f4561142d565b610f4f6000611791565b565b610f6382610f5d611413565b836114b4565b610f6d828261163d565b5050565b66038d7ea4c6800081565b610f8461142d565b600081118015610f975750620f42408111155b610fd6576040517f08c379a0000000000000000000000000000000000000000000000000000000008152600401610fcd90612610565b60405180910390fd5b60006007549050816007819055507f5fc202872c5a7cd0b4e57b020c5f9b016b85ab3ca29cfb204fe46a9e3f391a878183604051611015929190611fc7565b60405180910390a15050565b6000600560009054906101000a900473ffffffffffffffffffffffffffffffffffffffff16905090565b60606004805461105a90612109565b80601f016020809104026020016040519081016040528092919081815260200182805461108690612109565b80156110d35780601f106110a8576101008083540402835291602001916110d3565b820191906000526020600020905b8154815290600101906020018083116110b657829003601f168201915b5050505050905090565b60085481565b6000806110ee611413565b90506110fb818585611549565b600191505092915050565b6103e881565b611114611741565b60003411611157576040517f08c379a000000000000000000000000000000000000000000000000000000000815260040161114e9061267c565b60405180910390fd5b600080611163346109ed565b91509150600082116111aa576040517f08c379a00000000000000000000000000000000000000000000000000000000081526004016111a1906126e8565b60405180910390fd5b600081346111b89190612277565b905080600860008282546111cc91906122ab565b925050819055506111dd33846116bf565b3373ffffffffffffffffffffffffffffffffffffffff167f0d1a0d5e3d583a0e92588799dd06e50fd78c07daf05f0cc06d7b848b1ca445f13485856040516112279392919061258d565b60405180910390a250505061123a611787565b565b6000600160008473ffffffffffffffffffffffffffffffffffffffff1673ffffffffffffffffffffffffffffffffffffffff16815260200190815260200160002060008373ffffffffffffffffffffffffffffffffffffffff1673ffffffffffffffffffffffffffffffffffffffff16815260200190815260200160002054905092915050565b60008060008060006112d3610998565b9450600854935084670de0b6b3a7640000856112ef91906121d5565b6112f99190612246565b925047915083821161130c576000611319565b83826113189190612277565b5b90509091929394565b60008061132d610998565b036113415766038d7ea4c68000905061136c565b611349610998565b670de0b6b3a764000060085461135f91906121d5565b6113699190612246565b90505b90565b670de0b6b3a764000081565b61138361142d565b600073ffffffffffffffffffffffffffffffffffffffff168173ffffffffffffffffffffffffffffffffffffffff16036113f55760006040517f1e4fbdf70000000000000000000000000000000000000000000000000000000081526004016113ec919061202c565b60405180910390fd5b6113fe81611791565b50565b600061140c82610ef5565b9050919050565b600033905090565b6114288383836001611857565b505050565b611435611413565b73ffffffffffffffffffffffffffffffffffffffff16611453611021565b73ffffffffffffffffffffffffffffffffffffffff16146114b257611476611413565b6040517f118cdaa70000000000000000000000000000000000000000000000000000000081526004016114a9919061202c565b60405180910390fd5b565b60006114c0848461123c565b90507fffffffffffffffffffffffffffffffffffffffffffffffffffffffffffffffff8110156115435781811015611533578281836040517ffb8f41b200000000000000000000000000000000000000000000000000000000815260040161152a93929190612708565b60405180910390fd5b61154284848484036000611857565b5b50505050565b600073ffffffffffffffffffffffffffffffffffffffff168373ffffffffffffffffffffffffffffffffffffffff16036115bb5760006040517f96c6fd1e0000000000000000000000000000000000000000000000000000000081526004016115b2919061202c565b60405180910390fd5b600073ffffffffffffffffffffffffffffffffffffffff168273ffffffffffffffffffffffffffffffffffffffff160361162d5760006040517fec442f05000000000000000000000000000000000000000000000000000000008152600401611624919061202c565b60405180910390fd5b611638838383611a2e565b505050565b600073ffffffffffffffffffffffffffffffffffffffff168273ffffffffffffffffffffffffffffffffffffffff16036116af5760006040517f96c6fd1e0000000000000000000000000000000000000000000000000000000081526004016116a6919061202c565b60405180910390fd5b6116bb82600083611a2e565b5050565b600073ffffffffffffffffffffffffffffffffffffffff168273ffffffffffffffffffffffffffffffffffffffff16036117315760006040517fec442f05000000000000000000000000000000000000000000000000000000008152600401611728919061202c565b60405180910390fd5b61173d60008383611a2e565b5050565b60026006540361177d576040517f3ee5aeb500000000000000000000000000000000000000000000000000000000815260040160405180910390fd5b6002600681905550565b6001600681905550565b6000600560009054906101000a900473ffffffffffffffffffffffffffffffffffffffff16905081600560006101000a81548173ffffffffffffffffffffffffffffffffffffffff021916908373ffffffffffffffffffffffffffffffffffffffff1602179055508173ffffffffffffffffffffffffffffffffffffffff168173ffffffffffffffffffffffffffffffffffffffff167f8be0079c531659141344cd1fd0a4f28419497f9722a3daafe3b4186f6b6457e060405160405180910390a35050565b600073ffffffffffffffffffffffffffffffffffffffff168473ffffffffffffffffffffffffffffffffffffffff16036118c95760006040517fe602df050000000000000000000000000000000000000000000000000000000081526004016118c0919061202c565b60405180910390fd5b600073ffffffffffffffffffffffffffffffffffffffff168373ffffffffffffffffffffffffffffffffffffffff160361193b5760006040517f94280d62000000000000000000000000000000000000000000000000000000008152600401611932919061202c565b60405180910390fd5b81600160008673ffffffffffffffffffffffffffffffffffffffff1673ffffffffffffffffffffffffffffffffffffffff16815260200190815260200160002060008573ffffffffffffffffffffffffffffffffffffffff1673ffffffffffffffffffffffffffffffffffffffff168152602001908152602001600020819055508015611a28578273ffffffffffffffffffffffffffffffffffffffff168473ffffffffffffffffffffffffffffffffffffffff167f8c5be1e5ebec7d5bd14f71427d1e84f3dd0314c0f7b2291e5b200ac8c7c3b92584604051611a1f9190611ef5565b60405180910390a35b50505050565b600073ffffffffffffffffffffffffffffffffffffffff168373ffffffffffffffffffffffffffffffffffffffff1603611a80578060026000828254611a7491906122ab565b92505081905550611b53565b60008060008573ffffffffffffffffffffffffffffffffffffffff1673ffffffffffffffffffffffffffffffffffffffff16815260200190815260200160002054905081811015611b0c578381836040517fe450d38c000000000000000000000000000000000000000000000000000000008152600401611b0393929190612708565b60405180910390fd5b8181036000808673ffffffffffffffffffffffffffffffffffffffff1673ffffffffffffffffffffffffffffffffffffffff16815260200190815260200160002081905550505b600073ffffffffffffffffffffffffffffffffffffffff168273ffffffffffffffffffffffffffffffffffffffff1603611b9c5780600260008282540392505081905550611be9565b806000808473ffffffffffffffffffffffffffffffffffffffff1673ffffffffffffffffffffffffffffffffffffffff168152602001908152602001600020600082825401925050819055505b8173ffffffffffffffffffffffffffffffffffffffff168373ffffffffffffffffffffffffffffffffffffffff167fddf252ad1be2c89b69c2b068fc378daa952ba7f163c4a11628f55a4df523b3ef83604051611c469190611ef5565b60405180910390a3505050565b600082825260208201905092915050565b7f55736520627579546f6b656e73282920746f20707572636861736520746f6b6560008201527f6e73000000000000000000000000000000000000000000000000000000000000602082015250565b6000611cc0602283611c53565b9150611ccb82611c64565b604082019050919050565b60006020820190508181036000830152611cef81611cb3565b9050919050565b600081519050919050565b60005b83811015611d1f578082015181840152602081019050611d04565b60008484015250505050565b6000601f19601f8301169050919050565b6000611d4782611cf6565b611d518185611c53565b9350611d61818560208601611d01565b611d6a81611d2b565b840191505092915050565b60006020820190508181036000830152611d8f8184611d3c565b905092915050565b600080fd5b600073ffffffffffffffffffffffffffffffffffffffff82169050919050565b6000611dc782611d9c565b9050919050565b611dd781611dbc565b8114611de257600080fd5b50565b600081359050611df481611dce565b92915050565b6000819050919050565b611e0d81611dfa565b8114611e1857600080fd5b50565b600081359050611e2a81611e04565b92915050565b60008060408385031215611e4757611e46611d97565b5b6000611e5585828601611de5565b9250506020611e6685828601611e1b565b9150509250929050565b60008115159050919050565b611e8581611e70565b82525050565b6000602082019050611ea06000830184611e7c565b92915050565b60008060408385031215611ebd57611ebc611d97565b5b6000611ecb85828601611e1b565b9250506020611edc85828601611e1b565b9150509250929050565b611eef81611dfa565b82525050565b6000602082019050611f0a6000830184611ee6565b92915050565b600080600060608486031215611f2957611f28611d97565b5b6000611f3786828701611de5565b9350506020611f4886828701611de5565b9250506040611f5986828701611e1b565b9150509250925092565b600060ff82169050919050565b611f7981611f63565b82525050565b6000602082019050611f946000830184611f70565b92915050565b600060208284031215611fb057611faf611d97565b5b6000611fbe84828501611e1b565b91505092915050565b6000604082019050611fdc6000830185611ee6565b611fe96020830184611ee6565b9392505050565b60006020828403121561200657612005611d97565b5b600061201484828501611de5565b91505092915050565b61202681611dbc565b82525050565b6000602082019050612041600083018461201d565b92915050565b6000806040838503121561205e5761205d611d97565b5b600061206c85828601611de5565b925050602061207d85828601611de5565b9150509250929050565b600060a08201905061209c6000830188611ee6565b6120a96020830187611ee6565b6120b66040830186611ee6565b6120c36060830185611ee6565b6120d06080830184611ee6565b9695505050505050565b7f4e487b7100000000000000000000000000000000000000000000000000000000600052602260045260246000fd5b6000600282049050600182168061212157607f821691505b602082108103612134576121336120da565b5b50919050565b7f46656520746f6f20686967680000000000000000000000000000000000000000600082015250565b6000612170600c83611c53565b915061217b8261213a565b602082019050919050565b6000602082019050818103600083015261219f81612163565b9050919050565b7f4e487b7100000000000000000000000000000000000000000000000000000000600052601160045260246000fd5b60006121e082611dfa565b91506121eb83611dfa565b92508282026121f981611dfa565b915082820484148315176122105761220f6121a6565b5b5092915050565b7f4e487b7100000000000000000000000000000000000000000000000000000000600052601260045260246000fd5b600061225182611dfa565b915061225c83611dfa565b92508261226c5761226b612217565b5b828204905092915050565b600061228282611dfa565b915061228d83611dfa565b92508282039050818111156122a5576122a46121a6565b5b92915050565b60006122b682611dfa565b91506122c183611dfa565b92508282019050808211156122d9576122d86121a6565b5b92915050565b7f416d6f756e74206d757374206265203e20300000000000000000000000000000600082015250565b6000612315601283611c53565b9150612320826122df565b602082019050919050565b6000602082019050818103600083015261234481612308565b9050919050565b7f416d6f756e74206d7573742062652067726561746572207468616e2066656500600082015250565b6000612381601f83611c53565b915061238c8261234b565b602082019050919050565b600060208201905081810360008301526123b081612374565b9050919050565b7f4e6f206665657320746f20776974686472617700000000000000000000000000600082015250565b60006123ed601383611c53565b91506123f8826123b7565b602082019050919050565b6000602082019050818103600083015261241c816123e0565b9050919050565b7f496e73756666696369656e7420746f6b656e2062616c616e6365000000000000600082015250565b6000612459601a83611c53565b915061246482612423565b602082019050919050565b600060208201905081810360008301526124888161244c565b9050919050565b7f4e6f2045544820746f2072657475726e00000000000000000000000000000000600082015250565b60006124c5601083611c53565b91506124d08261248f565b602082019050919050565b600060208201905081810360008301526124f4816124b8565b9050919050565b7f496e73756666696369656e7420636f6e7472616374204554482062616c616e6360008201527f6500000000000000000000000000000000000000000000000000000000000000602082015250565b6000612557602183611c53565b9150612562826124fb565b604082019050919050565b600060208201905081810360008301526125868161254a565b9050919050565b60006060820190506125a26000830186611ee6565b6125af6020830185611ee6565b6125bc6040830184611ee6565b949350505050565b7f496e76616c6964207265736572766520726174696f0000000000000000000000600082015250565b60006125fa601583611c53565b9150612605826125c4565b602082019050919050565b60006020820190508181036000830152612629816125ed565b9050919050565b7f53656e642045544820746f2062757920746f6b656e7300000000000000000000600082015250565b6000612666601683611c53565b915061267182612630565b602082019050919050565b6000602082019050818103600083015261269581612659565b9050919050565b7f496e73756666696369656e742045544820666f72207075726368617365000000600082015250565b60006126d2601d83611c53565b91506126dd8261269c565b602082019050919050565b60006020820190508181036000830152612701816126c5565b9050919050565b600060608201905061271d600083018661201d565b61272a6020830185611ee6565b6127376040830184611ee6565b94935050505056fea2646970667358221220fe6d3e2f7ec68e1db2827c14cc07c3a01d2998b7052f59195a850d332148cefe64736f6c634300081c0033",
  "devdoc": {
    "details": "ERC20 token with automated pricing through a bonding curve mechanism  Key Features: - Bonding curve pricing: Price increases with supply, decreases when tokens are sold - Continuous liquidity: Users can buy/sell directly with the contract - Reserve-backed: All tokens backed by ETH held in contract reserves - Fee mechanism: Configurable fees on buy/sell operations - Owner controls: Administrative functions for fee and parameter management",
    "errors": {
      "ERC20InsufficientAllowance(address,uint256,uint256)": [
        {
          "details": "Indicates a failure with the `spender`s `allowance`. Used in transfers.",
          "params": {
            "allowance": "Amount of tokens a `spender` is allowed to operate with.",
            "needed": "Minimum amount required to perform a transfer.",
            "spender": "Address that may be allowed to operate on tokens without being their owner."
          }
        }
      ],
      "ERC20InsufficientBalance(address,uint256,uint256)": [
        {
          "details": "Indicates an error related to the current `balance` of a `sender`. Used in transfers.",
          "params": {
            "balance": "Current balance for the interacting account.",
            "needed": "Minimum amount required to perform a transfer.",
            "sender": "Address whose tokens are being transferred."
          }
        }
      ],
      "ERC20InvalidApprover(address)": [
        {
          "details": "Indicates a failure with the `approver` of a token to be approved. Used in approvals.",
          "params": {
            "approver": "Address initiating an approval operation."
          }
        }
      ],
      "ERC20InvalidReceiver(address)": [
        {
          "details": "Indicates a failure with the token `receiver`. Used in transfers.",
          "params": {
            "receiver": "Address to which tokens are being transferred."
          }
        }
      ],
      "ERC20InvalidSender(address)": [
        {
          "details": "Indicates a failure with the token `sender`. Used in transfers.",
          "params": {
            "sender": "Address whose tokens are being transferred."
          }
        }
      ],
      "ERC20InvalidSpender(address)": [
        {
          "details": "Indicates a failure with the `spender` to be approved. Used in approvals.",
          "params": {
            "spender": "Address that may be allowed to operate on tokens without being their owner."
          }
        }
      ],
      "OwnableInvalidOwner(address)": [
        {
          "details": "The owner is not a valid owner account. (eg. `address(0)`)"
        }
      ],
      "OwnableUnauthorizedAccount(address)": [
        {
          "details": "The caller account is not authorized to perform an operation."
        }
      ],
      "ReentrancyGuardReentrantCall()": [
        {
          "details": "Unauthorized reentrant call."
        }
      ]
    },
    "events": {
      "Approval(address,address,uint256)": {
        "details": "Emitted when the allowance of a `spender` for an `owner` is set by a call to {approve}. `value` is the new allowance."
      },
      "FeesUpdated(uint256,uint256)": {
        "details": "Emitted when buy/sell fees are updated by owner",
        "params": {
          "newBuyFee": "New buy fee in basis points",
          "newSellFee": "New sell fee in basis points  "
        }
      },
      "ReserveFundsWithdrawn(uint256)": {
        "details": "Emitted when accumulated fees are withdrawn by owner",
        "params": {
          "amount": "Amount of ETH withdrawn"
        }
      },
      "ReserveRatioUpdated(uint256,uint256)": {
        "details": "Emitted when the reserve ratio is updated by owner",
        "params": {
          "newRatio": "New reserve ratio value",
          "oldRatio": "Previous reserve ratio value"
        }
      },
      "TokensPurchased(address,uint256,uint256,uint256)": {
        "details": "Emitted when tokens are purchased through the bonding curve",
        "params": {
          "buyer": "Address of the token purchaser",
          "ethSpent": "Total ETH sent by buyer (including fees)",
          "fee": "Fee amount deducted from the transaction",
          "tokensReceived": "Number of tokens minted to buyer"
        }
      },
      "TokensSold(address,uint256,uint256,uint256)": {
        "details": "Emitted when tokens are sold back to the contract",
        "params": {
          "ethReceived": "ETH amount received by seller (after fees)",
          "fee": "Fee amount deducted from the transaction",
          "seller": "Address of the token seller  ",
          "tokensSold": "Number of tokens burned in the sale"
        }
      },
      "Transfer(address,address,uint256)": {
        "details": "Emitted when `value` tokens are moved from one account (`from`) to another (`to`). Note that `value` may be zero."
      }
    },
    "kind": "dev",
    "methods": {
      "allowance(address,address)": {
        "details": "Returns the remaining number of tokens that `spender` will be allowed to spend on behalf of `owner` through {transferFrom}. This is zero by default. This value changes when {approve} or {transferFrom} are called."
      },
      "approve(address,uint256)": {
        "details": "See {IERC20-approve}. NOTE: If `value` is the maximum `uint256`, the allowance is not updated on `transferFrom`. This is semantically equivalent to an infinite approval. Requirements: - `spender` cannot be the zero address."
      },
      "balanceOf(address)": {
        "details": "Returns the value of tokens owned by `account`."
      },
      "burn(uint256)": {
        "details": "Override the standard burn function to include a fee mechanism When users burn tokens directly, a 2% fee is transferred to owner This incentivizes using the sellTokens function instead ",
        "params": {
          "amount": "Number of tokens to burn"
        }
      },
      "burnFrom(address,uint256)": {
        "details": "Destroys a `value` amount of tokens from `account`, deducting from the caller's allowance. See {ERC20-_burn} and {ERC20-allowance}. Requirements: - the caller must have allowance for ``accounts``'s tokens of at least `value`."
      },
      "buyTokens()": {
        "details": "Buy tokens with ETH using the bonding curve ETH is sent with the transaction, tokens are minted to the buyer  Security features: - nonReentrant: Prevents reentrancy attacks - Input validation: Ensures positive ETH amount and sufficient return - State updates before external calls: Follows checks-effects-interactions pattern"
      },
      "calculatePurchaseReturn(uint256)": {
        "details": "Calculate how many tokens can be purchased with given ETH amount Uses simplified linear approximation for gas efficiency and safety ",
        "params": {
          "ethAmount": "Amount of ETH to spend on tokens (in wei)"
        },
        "returns": {
          "fee": "Fee amount that would be charged",
          "tokensOut": "Number of tokens that would be received"
        }
      },
      "calculateSaleReturn(uint256)": {
        "details": "Calculate how much ETH will be received for selling tokens ",
        "params": {
          "tokenAmount": "Number of tokens to sell"
        },
        "returns": {
          "ethOut": "Amount of ETH that would be received (after fees)",
          "fee": "Fee amount that would be charged"
        }
      },
      "constructor": {
        "details": "Initialize the contract with initial parameters Sets up the token with name \"DEV\", symbol \"DEV\" Mints initial supply to contract and establishes initial reserve balance"
      },
      "decimals()": {
        "details": "Returns the number of decimals used to get its user representation. For example, if `decimals` equals `2`, a balance of `505` tokens should be displayed to a user as `5.05` (`505 / 10 ** 2`). Tokens usually opt for a value of 18, imitating the relationship between Ether and Wei. This is the default value returned by this function, unless it's overridden. NOTE: This information is only used for _display_ purposes: it in no way affects any of the arithmetic of the contract, including {IERC20-balanceOf} and {IERC20-transfer}."
      },
      "getBalance(address)": {
        "details": "Get token balance of an account (wrapper for compatibility)",
        "params": {
          "account": "Address to check balance for"
        },
        "returns": {
          "_0": "Token balance of the account"
        }
      },
      "getContractStats()": {
        "details": "Get comprehensive contract statistics Useful for frontend applications and monitoring ",
        "returns": {
          "_availableFees": "Fees available for withdrawal by owner",
          "_contractETHBalance": "Total ETH balance in contract",
          "_currentPrice": "Current price per token in wei",
          "_reserveBalance": "Current ETH reserve balance",
          "_totalSupply": "Current total token supply"
        }
      },
      "getCurrentPrice()": {
        "details": "Get current token price in ETH per token Price = reserveBalance  totalSupply (scaled for precision) ",
        "returns": {
          "_0": "Current price in wei per token"
        }
      },
      "mintTo(address,uint256)": {
        "details": "Mint tokens directly to a recipient (bypasses bonding curve) Used for airdrops, rewards, or initial distribution Only callable by contract owner ",
        "params": {
          "amount": "Number of tokens to mint",
          "recipient": "Address to receive the minted tokens"
        }
      },
      "name()": {
        "details": "Returns the name of the token."
      },
      "owner()": {
        "details": "Returns the address of the current owner."
      },
      "renounceOwnership()": {
        "details": "Leaves the contract without owner. It will not be possible to call `onlyOwner` functions. Can only be called by the current owner. NOTE: Renouncing ownership will leave the contract without an owner, thereby disabling any functionality that is only available to the owner."
      },
      "sellTokens(uint256)": {
        "details": "Sell tokens for ETH using the bonding curve Tokens are burned, ETH is transferred to the seller ",
        "params": {
          "tokenAmount": "Number of tokens to sell  Security features: - nonReentrant: Prevents reentrancy attacks   - Balance validation: Ensures seller has sufficient tokens - Liquidity check: Ensures contract has enough ETH - State updates before external calls"
        }
      },
      "setFees(uint256,uint256)": {
        "details": "Update buy and sell fee percentages Fees are capped at MAX_FEE to prevent abuse Only callable by contract owner ",
        "params": {
          "newBuyFee": "New buy fee in basis points (max 1000 = 10%)",
          "newSellFee": "New sell fee in basis points (max 1000 = 10%)"
        }
      },
      "setReserveRatio(uint256)": {
        "details": "Update the reserve ratio parameter Changes the steepness of the bonding curve Only callable by contract owner ",
        "params": {
          "newRatio": "New reserve ratio in parts per million (1-1000000)"
        }
      },
      "symbol()": {
        "details": "Returns the symbol of the token, usually a shorter version of the name."
      },
      "totalSupply()": {
        "details": "Returns the value of tokens in existence."
      },
      "transfer(address,uint256)": {
        "details": "See {IERC20-transfer}. Requirements: - `to` cannot be the zero address. - the caller must have a balance of at least `value`."
      },
      "transferFrom(address,address,uint256)": {
        "details": "See {IERC20-transferFrom}. Skips emitting an {Approval} event indicating an allowance update. This is not required by the ERC. See {xref-ERC20-_approve-address-address-uint256-bool-}[_approve]. NOTE: Does not update the allowance if the current allowance is the maximum `uint256`. Requirements: - `from` and `to` cannot be the zero address. - `from` must have a balance of at least `value`. - the caller must have allowance for ``from``'s tokens of at least `value`."
      },
      "transferOwnership(address)": {
        "details": "Transfers ownership of the contract to a new account (`newOwner`). Can only be called by the current owner."
      },
      "withdrawFees()": {
        "details": "Withdraw accumulated fees from the contract Calculates excess ETH (contract balance - reserve balance) and transfers to owner Only callable by contract owner  This function allows the owner to collect trading fees that have accumulated while preserving the reserve backing for all tokens"
      }
    },
    "stateVariables": {
      "INITIAL_PRICE": {
        "details": "Initial price per token in wei (0.001 ETH) Sets the starting point for the bonding curve"
      },
      "INITIAL_SUPPLY": {
        "details": "Initial token supply minted at contract creation Provides price stability and prevents division by zero in calculations"
      },
      "MAX_FEE": {
        "details": "Maximum allowed fee to prevent excessive fee setting 1000 basis points = 10% maximum fee limit"
      },
      "SCALE": {
        "details": "Scaling factor for precise calculations (10^18) Used to maintain precision in price calculations and avoid rounding errors"
      },
      "buyFee": {
        "details": "Fee charged on token purchases in basis points 100 = 1% fee on buy transactions"
      },
      "reserveBalance": {
        "details": "Current ETH reserve balance backing the tokens This is the actual ETH that backs token value (excluding fees) Updated on every buy/sell transaction"
      },
      "reserveRatio": {
        "details": "Reserve ratio in parts per million (PPM) 500000 = 50% - determines the steepness of the bonding curve Higher ratio = steeper curve (more price sensitive) Lower ratio = flatter curve (less price sensitive)"
      },
      "sellFee": {
        "details": "Fee charged on token sales in basis points   200 = 2% fee on sell transactions"
      }
    },
    "title": "DevToken - Bonding Curve Token Contract",
    "version": 1
  },
  "userdoc": {
    "kind": "user",
    "methods": {},
    "version": 1
  },
  "storageLayout": {
    "storage": [
      {
        "astId": 709,
        "contract": "contracts/BondingCurveToken.sol:DevToken",
        "label": "_balances",
        "offset": 0,
        "slot": "0",
        "type": "t_mapping(t_address,t_uint256)"
      },
      {
        "astId": 715,
        "contract": "contracts/BondingCurveToken.sol:DevToken",
        "label": "_allowances",
        "offset": 0,
        "slot": "1",
        "type": "t_mapping(t_address,t_mapping(t_address,t_uint256))"
      },
      {
        "astId": 717,
        "contract": "contracts/BondingCurveToken.sol:DevToken",
        "label": "_totalSupply",
        "offset": 0,
        "slot": "2",
        "type": "t_uint256"
      },
      {
        "astId": 719,
        "contract": "contracts/BondingCurveToken.sol:DevToken",
        "label": "_name",
        "offset": 0,
        "slot": "3",
        "type": "t_string_storage"
      },
      {
        "astId": 721,
        "contract": "contracts/BondingCurveToken.sol:DevToken",
        "label": "_symbol",
        "offset": 0,
        "slot": "4",
        "type": "t_string_storage"
      },
      {
        "astId": 320,
        "contract": "contracts/BondingCurveToken.sol:DevToken",
        "label": "_owner",
        "offset": 0,
        "slot": "5",
        "type": "t_address"
      },
      {
        "astId": 1856,
        "contract": "contracts/BondingCurveToken.sol:DevToken",
        "label": "_status",
        "offset": 0,
        "slot": "6",
        "type": "t_uint256"
      },
      {
        "astId": 1951,
        "contract": "contracts/BondingCurveToken.sol:DevToken",
        "label": "reserveRatio",
        "offset": 0,
        "slot": "7",
        "type": "t_uint256"
      },
      {
        "astId": 1954,
        "contract": "contracts/BondingCurveToken.sol:DevToken",
        "label": "reserveBalance",
        "offset": 0,
        "slot": "8",
        "type": "t_uint256"
      },
      {
        "astId": 1972,
        "contract": "contracts/BondingCurveToken.sol:DevToken",
        "label": "buyFee",
        "offset": 0,
        "slot": "9",
        "type": "t_uint256"
      },
      {
        "astId": 1976,
        "contract": "contracts/BondingCurveToken.sol:DevToken",
        "label": "sellFee",
        "offset": 0,
        "slot": "10",
        "type": "t_uint256"
      }
    ],
    "types": {
      "t_address": {
        "encoding": "inplace",
        "label": "address",
        "numberOfBytes": "20"
      },
      "t_mapping(t_address,t_mapping(t_address,t_uint256))": {
        "encoding": "mapping",
        "key": "t_address",
        "label": "mapping(address => mapping(address => uint256))",
        "numberOfBytes": "32",
        "value": "t_mapping(t_address,t_uint256)"
      },
      "t_mapping(t_address,t_uint256)": {
        "encoding": "mapping",
        "key": "t_address",
        "label": "mapping(address => uint256)",
        "numberOfBytes": "32",
        "value": "t_uint256"
      },
      "t_string_storage": {
        "encoding": "bytes",
        "label": "string",
        "numberOfBytes": "32"
      },
      "t_uint256": {
        "encoding": "inplace",
        "label": "uint256",
        "numberOfBytes": "32"
      }
    }
  }
}